:060000000219FD02034B92
:03000B0002008070
:0300130002035E87
:03001B000200B030
:03002B00020319B4
:03005B0002036D30
:030073000203384D
:10008000C0D075D01018B8CF0408208507B2858677
:100090008AD0D03253A4DFD285C2A98F8E7589AAA7
:1000A000C289C28B758A00D2A8D2AAC228D0D03207
:1000B000C2A8C28E85588BC0D075D008C0E0C0F0F1
:1000C000C2CAA9CCAACDD2CAC3E99559F9EA955AB0
:1000D0007049C3E9955B4043955B503FB8103C784D
:1000E00000A9577D00E2FEC39DC399402E99EC33D1
:1000F000FC08E2FDC39EC399402199EC33FC08E261
:10010000FEC39DC399401499EC33FC08E2FDC39EE5
:10011000C399400799EC33FC088002806AE2FEC371
:100120009DC399406299EB33FB08E2FDC39EC399DE
:10013000405599EB33FB08E2FEC39DC399404899B3
:10014000EB33FB08E2FDC39EC399403B99EB33FBC5
:1001500008E2FEC39DC399402E99EB33FB08E2FDF4
:10016000C39EC399402199EB33FB08E2FEC39DC3B4
:1001700099401499EB33FB08E2FDC39EC3994007F5
:1001800099EB33FB08801E0530E53070021530C353
:10019000E5309432400AD225755C00755D00610936
:1001A00075310A6109E2FEC39DC39940DA99EA33C9
:1001B000FA08E2FDC39EC39940CD99EA33FA08E2FA
:1001C000FEC39DC39940C099EA33FA08E2FDC39E7D
:1001D000C39940B399EA33FA08EBC46B6C6A3027D1
:1001E00001F4540F70A1C3EBF4FA9460FBECF454E7
:1001F0000F9400FC5018EA7C007B00600CC3135085
:1002000007B55C05055D8006E4F55C755D00302290
:100210001BC3EB94D0F5F0EC94074003ABF0FC303B
:100220002101B39226C3EB33FBEC33FCEB54F04CCF
:10023000C475F00584FAEC13FCEB132AFBEC3400D4
:10024000FC30E3047BFF7C07302B048B6F8C702029
:100250001C27301124EC700C798187F0C3EB95F0EA
:100260005002ABF0E537601175F028A42BFBEC349D
:1002700000FC30E3047BFF7C07302B09202C063088
:100280001C0312154DEB54F84CC423F97007EB70A6
:1002900004D2258005753200C225E5306002153094
:1002A000C3E54DFD954E4002AD4EC3ED995008EDAE
:1002B00075F008A4FBACF0C3EC13F45403FAEB1391
:1002C000F4F9202C25C3E9941EFBEA9400FC5005A8
:1002D000E4FBFC800DC3EB9550EC95514004AB5012
:1002E000AC5189FB8AFC8BE98CEA75310A302719FD
:1002F000302816758E017589A2D28543A420780016
:1003000085648AC28DD2A980097800758A00D2A836
:10031000D2AAD0F0D0E0D0D032C0E0C2CF053CD2DB
:1003200023E5317004D22580021531302507E532EE
:100330000460020532D0E032C2AF53E67F53917FB2
:100340007592FA7593FFC218D2AF32C0E0E58A8584
:10035000588BC0D075D008F208D0D0D0E032C2AAF5
:10036000D28EC2CA85CC5985CD5AD2CA32327A00D1
:100370007901801E7A00790580187A00790A801246
:100380007A007964800C7A0079C880067A0079FA5C
:100390008000090A8009781874FFD5E0FDD8F9D9E2
:1003A000F5DAF3227A427B3580247A2D7B4D801E4C
:1003B0007A267B5C80187A197B8C80127A147BAF4A
:1003C000800C7A427B1E80067A2D7B2C8000E554BF
:1003D0007001227902E4C293D5E0FDD292D5E0FD0E
:1003E000C292D5E0FDD293D5E0FDE920E002D290A3
:1003F00030E002D294E554D5E0FDE920E002C2905D
:1004000030E002C2947496D5E0FDD9C9EA78C8D824
:10041000FED5E0F9DBBDC2932271A471AA71B022AE
:1004200071C871A42271B071AA71A42271C871C27D
:100430002279998754B8010471A48017B802047115
:10044000AA8010B8030471B08009B8040471B680A2
:100450000271BC79988754222278A5E6F95403707A
:1004600000E9540C7000E954307000E954C0700089
:1004700022C290C292C294C291C293C29575D5FF16
:1004800022301E03020535A84F20102B78FFE53BD4
:100490006025E543602174FF301102747F8543F0CD
:1004A00084853BF0A4F8C5F06005754EFF800AC353
:1004B000E8954F5002A84F884EE56A456B6034C3FB
:1004C000E542956AE543956B500BE568C3940B4094
:1004D0001815688014C3E542956CE543956D400995
:1004E000E568B4FF0280020568C3E54E95684003E5
:1004F00085684E2278AAE66026E56E7019C3E5434A
:100500009420403078AAE6120FD4C2AF8C508D519F
:10051000D2AF756E0122C3E543941C50178004E5E9
:100520006E6011788DE6120FD4C2AF8C508D51D20F
:10053000AF756E0022C3E54294A0E5439400E54EFA
:100540005003148001046002F54E22E576B179C3B0
:10055000E9941EFBEA9400FC5005E4FBFC800DC30B
:10056000EB9550EC95514004AB50AC51C2AF89FBB8
:100570008AFC8BE98CEAD2AF2275F008A4FBACF0C0
:10058000C3EC13F45403FAEB13F4F922B179C2AFBC
:1005900089EB8AECD2AF22102301220567E567546C
:1005A00007600122E56720E335E55260267553FFB9
:1005B000E5BE601FE5BDC3955240187553C894044D
:1005C00040117553969404400A7553649404400393
:1005D0007553322024012285386575660C22E55258
:1005E000600FC3E54D955360084004154D8002052A
:1005F0004D302473E5675438B40829C3E53994783D
:100600005003E4800475F00984A21392E7A21492C7
:10061000E6A21592E5C213C214C215F56575660E01
:1006200075E89022B4180A75658875660875E890B3
:1006300022B4280A7565AA75660A75E8902278A61C
:10064000B6010DE5BE7003E48018E5BD9414801278
:10065000E5BE700AE5BDC394EB5007E48004E5BD38
:100660002414F56575660275E8902275420075439D
:10067000F022C2AFC2CAA8CCA9CDAA3C30CF010A91
:10068000D2CAD2AFC3EA13FAE913F9E813F820107B
:1006900014C3E8953D883DF8E9953E893E547FF9BD
:1006A000301E36E18CAB3DAC3EAD3F883D893E8A85
:1006B0003FC3E89BE99CEA9D547F60087542FF7543
:1006C00043FFE15BAE40AF418B408C41C3E89EF8F5
:1006D000E99FF9AA42AB438011AA42AB43C3EB9412
:1006E00004404894044013201126C3EB13FDEA1381
:1006F000FCC3ED13FDEC13FC804AEBC423FCEAC4FD
:1007000023541F4CFC7D00C3E913F9E813F880342F
:10071000EBC423FC541FFDEC54E0FCEAC423541F3B
:100720004CFCC3E913F9E813F88019EBC4FCEAC4E4
:10073000540F4CFC7D00C3E913F9E813F8C3E91327
:10074000F9E813F8C3EA9CFAEB9DFBEA28F542EBC3
:1007500039F54350067542FF7543FFC3E5439402E4
:100760005002D21EE543C4FA540FFBEA54F0FAE5F6
:1007700042C4540F4AFAC3EA9402FAEB9400FB40D5
:10078000057048EA70457A017B00803FAA42AB437E
:10079000EBC4FCEAC4540F4CFCC3EA9CFAEB940093
:1007A000FBE80303543F2AFAEB3400FB8A428B43F5
:1007B000C394024002C21EEBC4FE7B00EAC4540F85
:1007C0004EC39402FA400270027A012028063018C3
:1007D00008120BAB30180280FB854992854A93D2F0
:1007E0001843E6807892E6FFC3E49AF8E49BF9C3E5
:1007F000E833F8E933F9201E7F3010047F038015B9
:10080000C3E5389482400E0F941E40010FC3EF944D
:100810000640027F05E8FAE9FBD3E913FDE813FC83
:100820008C478D488849894AC3EF9403602BEF2099
:10083000E00CE82CF8E93DF9ECFAEDFB800BE8D38D
:1008400038F8E939F97AFF7BFFC3EF9403400A8A4D
:100850004B8B4C884589468050884B894C8A458B08
:1008600046301045754BF0754CFF7547F07548FFE5
:100870007549F0754AFF8031E8FAD313FC8C47883C
:1008800049C3EF9403601EEF20E007E82CF8ECFA70
:100890008007E8282401F87AFFC3EF940340068A12
:1008A0004B88458004884B8A4520280530180771FD
:1008B000AB30180280FB753502D21843E680301148
:1008C0002DA842A943C3E913F9E813F8301004E94D
:1008D0002440F9C2AF53E67F759100C3E498F594C4
:1008E000E499F595759104D21843E680D2AF22754C
:1008F000F000301D0E75F040800975F040301D038A
:1009000075F000D2197544007A027B02201E1D305A
:100910001102C2193010067A367B36800F7B28E52B
:1009200043700104FAC3942840027A28201810E585
:1009300044600C301003D53504D21A806611B90515
:1009400044E59B5440B5F00DE53460BC2019B9DA9C
:10095000DBC21A804E20100B2019110AC3EA9B40FB
:10096000CB80A50AC3EA9B40011A80C0C21953E696
:100970007F759100301E117594007595F075910486
:10098000D21843E680020908E5437EFFC3334009DD
:10099000C3334005C3334001FEC3E49E759400F5A4
:1009A0009580DAC2AF53E67F85459285469375916F
:1009B00000854B94854C95759104D21843E680D2FE
:1009C000AF201018301A17201114201D1120190EF5
:1009D000C2AF12047115811581021958053422E540
:1009E0003875F007A430190405F0D213A2F013A251
:1009F000F113A2F213F538C394785003753878C315
:100A0000E53895394003853839C3E538953A400BC8
:100A1000D214C290C292C29475D5FF202805301816
:100A20000771AB30180280FB854792854893D21836
:100A300043E6802220120FC2AFC293D29175D5CF68
:100A4000D2AF759F2022C2AFC293D29575D5FCD28A
:100A5000AF759F202220120FC2AFC29475D5F3D27A
:100A600091D2AF759F3022C2AFC29075D5F3D295A7
:100A7000D2AF759F102220120FC2AFC291D29575CE
:100A8000D5F3D2AF759F1022C2AFC295D29175D562
:100A9000F3D2AF759F302220120FC2AFC29275D52C
:100AA000FCD295D2AF759F2022C2AFC29275D5CF2E
:100AB000D291D2AF759F202220120FC2AFC295D221
:100AC0009375D5FCD2AF759F3022C2AFC291D2933D
:100AD00075D5CFD2AF759F102220120FC2AFC29032
:100AE00075D5CFD293D2AF759F1022C2AFC2947585
:100AF000D5FCD293D2AF759F30227432A2854003C9
:100B00002085F750033085F2D5E0F3922722E55C8B
:100B1000700122F8C39406500FC2AF120471120480
:100B200031120386D2AF807CC3E55D9406407BB86A
:100B30000704C221806EB80804D2218067B8090476
:100B4000C2228060B80A04D2228059B80D0A7565A5
:100B50000075660ED224804CB80E0A7565FF756666
:100B60000EC224803FB8140C7988E714A2E09221C9
:100B7000C22A8030B8150D7988E714A2E0B392211B
:100B8000D22A8020B80C1DE4A22192E0A22292E198
:100B9000047988F77555A57556F1D12075550075FE
:100BA0005600D2AF755C00755D0022C0D075D010C4
:100BB000BE0039E566702EC2AFE542854327D2AF4D
:100BC000A23813F9A2391329FAE52703C2E7F9037A
:100BD000C2E739FBE527232354FCFCC3EA9CF52636
:100BE000EB9400F5270E201803D0D022BE0124E597
:100BF000667010E527705DE526701175270F752664
:100C0000FF80098565268566277566000E20180316
:100C1000D0D022BE0215E526C465266527F478D01B
:100C2000A65E91D10E201803D0D022BE030BE5267C
:100C300091D10E201803D0D022BE040CE526C49119
:100C4000D10E201803D0D022E52791D1087E00D004
:100C5000D0D2282220E71620E61D20E52720E43404
:100C600020E34120E25020E15CE526809FA237335B
:100C7000F52675270F8095A23733A23633F52675F2
:100C8000270D8088A23733A23633A23533F5267577
:100C9000270B810CE52654F0C23C4527C4F5267588
:100CA0002709810CE526A23813A23913A23A13F5BD
:100CB00026752707810CE526A23813A23913F526DD
:100CC000752705810CE526A23813F52675270381C3
:100CD0000C540F23900CD87381F8A102A10FA1200E
:100CE000A12AA137A141A155A162A176A17DA18E22
:100CF000A198A1AFA1B9A1CD08A66008A65E08A6DB
:100D00005E2208A65E08A65F08A65E08A65E22868A
:100D1000F0E55FB5F002E560F608A66008A65E2281
:100D200008A65E08A66008A65E2208A65F08A65E62
:100D300008A65E08A65E2208A65F08A65F08A65E53
:100D40002286F0E55FB5F002E560F608A65E08A62B
:100D50005F08A65E2208A65E08A65E08A65F08A633
:100D60005E2286F0E55FB5F002E560F608A65F0852
:100D7000A65E08A65E2208A66008A65F2286F0E5A9
:100D80005FB5F002E560F608A65F08A65F2208A638
:100D90005E08A65F08A65F2286F0E55FB5F002E573
:100DA00060F608A65E08A65E08A65E08A65E220893
:100DB000A65F08A65E08A65F2286F0E55FB5F00292
:100DC000E560F608A65E08A65E08A65F2208A65E95
:100DD00008A65E08A65E08A65F22901A0D7820D1AC
:100DE00060E520B4550AA3D160E520B4AA028012C0
:100DF0007555A57556F1D1E7D1207555007556008A
:100E0000801D901A0378807B0AD160A308DBFA90DA
:100E10001A0F788C7B25D160A308DBFA901A342254
:100E2000C2AFD1A3D1C5D180901A007400D165A3FF
:100E30007415D165A374E2D165901A0378807B0A9A
:100E4000D164A308DBFA901A0F788C7B25D164A3B8
:100E500008DBFAD1B6D1D8D194901A341203862285
:100E6000E493F622E6438F01538FFDFFC3E583949D
:100E70001C400122EF8555B78556B7F0538FFE22EF
:100E8000438F02438F018555B78556B7901A0DF0F1
:100E9000538FFC22901A0D7455D165901A0E74AAC6
:100EA000D165227A3079D07820901A40D160E5203F
:100EB000F709A3DAF7227A3079D0901A40E7D165A2
:100EC00009A3DAF9227A8C79007820901A70D1601F
:100ED000E520F309A3DAF7227A8C7900901A70E3FF
:100EE000D16509A3DAF922788076FF0876150876AD
:100EF000010876FF0876050876FF08760908761857
:100F00000876010876FF08080876FF0876FF08765D
:100F1000FF0876FF0876FF0876FF0876040876FF5C
:100F20000876FF0876FF0876FF0876FF087628081F
:100F300076500876040876FF0876020876FF087671
:100F4000FF0876FF0876000876FF0876FF0876FF30
:100F50000876000876000876020876000876000811
:100F60007600087600087600087608087614087679
:100F700010087600087600227888E614A2E1922212
:100F8000A2E092217884745096500276507886744C
:100F90000D965002760D863B789CE6753AFFB402BA
:100FA00003753AA0B40303753A8275520078A0E63F
:100FB000F9600F78A6B601047453800274282409DE
:100FC000D9FCF55278988654788DE6F1D48C508D02
:100FD00051F1E822FA2323F5F05403FDE5F054FC27
:100FE000FCEAB4FF027CFF2278A8E6B4FF01E4F932
:100FF0006008C3E99412400279008969756A007536
:101000006B00756C00756D0078A9E6B4FF01E460B3
:1010100032C39489400474888002248911DA8A6A70
:101020008B6BEAFCEBFD75F004C3ED13FDEC13FCD8
:10103000D5F0F6EA2CF56CEB3DF56D5006756CFFBE
:10104000756DFF78AAE6B4FF027600756E00C22BBC
:10105000C22CC22D78ABE6B4FF02E4F66007D22BB7
:10106000B40202D22D78ACE6B4FF027408C3F9943E
:10107000294002792878ACE9F678ADE6B4FF02742D
:1010800014C3F9943D4002793C78ADE9F678AEE6B8
:10109000B4FF027610C22E78AFE6B4FF02E4F67811
:1010A000B0E6B4FF01E4F9C394F0400279EF78B000
:1010B000E9F678C2E4F608F6E9600911E278C2EAD6
:1010C000F608EBF678AFE6600978C3E6C378AF962A
:1010D0004007E478AFF678B0F6227A807B387C015E
:1010E00080067A007B407C1FF97D0075F018C3EA0A
:1010F00033FAEB33FBEC33FCED33FD740033FEC30A
:10110000ED99FF5003EE6003EFFD0AD5F0E0EC60CF
:10111000047AFF7BFF22C2AFD22C120471757101D9
:10112000757200757300756F00757000757D0075C0
:101130007E00C22F302E11C22EA226921278C2E655
:10114000F57408E6F5758006757400757500910FE5
:10115000202D0B12054B120AB8120AD980049143B4
:1011600091E4913688778978D2AFE531604F913636
:10117000C3E89577FAE99578FBC3EA94A0EB940F5E
:101180004016E57724A0F577E578340FF57831C57A
:10119000402B302F0302131A2028CFE575600C1165
:1011A000E2C2AF8A428B43D2AF800AC2AF7542FF20
:1011B0007543FFD2AF120BAB12059780AD302D02F5
:1011C000915502195DA86FA97075F003C3E833F853
:1011D000E933F9D5F0F620260520120980033012F4
:1011E000045149802E780079005149E574457570A5
:1011F00022C2AF120471A2269212202D08120AB840
:10120000120AD980057579FFD2AF75710175720028
:10121000757300E571FEE5722574F572E573357539
:10122000F5735011302D0CE57104B407027401F50B
:10123000718002518851C3910F400C202D05120579
:101240004B800291E4C322D322E8FAE9FB78AEE6B0
:10125000FCC3E5749AE5759B4015C3E5749CF8E5FD
:10126000759400F94019C3E89AE99B50168010E57F
:10127000742CF8E5753400F9C3EA98EB995004EA48
:10128000F8EBF98874897522E571146013146017FE
:1012900014601B14601F146023120AD97571012297
:1012A000120A3475710222120A5575710322120A4C
:1012B0007675710422120A9775710522120AB875A3
:1012C00071062278AFE6700122FDA22620120440AA
:1012D0001480025010C3E5759D400AE57E0470013C
:1012E00014F57E8003757E00E57D04700114F57DA4
:1012F000C3E5719E6023E571B40304757D0022B4DB
:101300000117C3E57E94104010C3E57D94094009A0
:10131000C3E57D941F5002D22F22C2AF1204713058
:101320002D049155C2AFB21271B770030217C414E5
:1013300070027406F571E57D75F0D0A4F542ACF04D
:10134000E57D75F007A42CF5439136C3E913F9E860
:1013500013F8E543C313FBE54213FAC3EB13FBEAAF
:1013600013FAC3E89AF53DE99BF53EC3EB13F9EA9E
:1013700013F81208D3C2AF7592F07593FFD21175AE
:101380003401C21075360CC21E854F4D854F4E512B
:1013900088C2AFC22CD2AF120672E5711475F00389
:1013A000A49013A57302184E02185A02186C021862
:1013B000780218840218907D307CF0DCFEDDFA7D26
:1013C000407EFF71D46EAEF07006E5F071F37003ED
:1013D000DDF1E422E4F5F07A107B038A9F7CF0DCF7
:1013E000FEE59BA2E6E5F033F5F0EA2410FADBEB2C
:1013F000E5F02230120CA2E092D5A2E292E0A2D552
:1014000092E290140793220005010603040200787B
:10141000ACE6F92575500274FFFA78ADE6F5F0C335
:10142000EA95F04002AAF0C3EA954D4002AA4D8A1F
:1014300076C3E54D9922C2AFC2CAA8CCA9CDD2CA03
:10144000D2AF22E412058CC2AF75DC4275E203D242
:10145000AF7579FF22C2AF75E20275DC00D2AF2210
:10146000C2AF75D5FFC290C292C294C291C293C25C
:10147000957007D29175D5E3800F147007D29375DC
:10148000D5EC8005D29575D5F8D2AF22E57AC39414
:1014900030400EE57AC39470400AE57AC394B040B8
:1014A00006740122740222E422C3E57A9A5002F4FF
:1014B00004FBC39461400574C0C39B22EB22C42388
:1014C000232420FA91A9FCEA2420FA91A9FBC39CC9
:1014D0005002EBFC7430C39C22901595938576F0F6
:1014E000A4E5F022E573C313C313C313F57BE571C1
:1014F00014C423257B30120BF57B74C0C3957BB4D9
:10150000C001E4F57A918C7008757B01757C0280CE
:1015100011147008757B00757C028006757B007560
:101520007C01E57B91BE91D9F57BE57C91BE91D99B
:10153000F57C857B7612054BE57C12058C918CF54C
:101540007BB5790122E57B9160857B792278AFE6D6
:10155000603DF5F05407C425E0F9E5F003030354BA
:101560001FFAC3EB99F9EC9A4026FAE9C333FBEA78
:1015700033FCC3EA13F5F0E9132BFBE5F03CFCEB7D
:101580002460FBEC3400FC54F860047BFF7C0722F1
:101590007B607C002200081119212A323A424A520B
:1015A0005A626971787F878E959BA2A8AEB4BAC043
:1015B000C5CACFD4D9DDE1E5E8ECEFF1F4F6F8FAED
:1015C000FCFDFEFEFFFF7555007556007597DE7534
:1015D00097AD7581B243FF8075EF0675A9001204BF
:1015E000717580FF75F1F075A4007580FF75D4FFEB
:1015F00075900075F23F75A53F75900075D5FF7524
:10160000A60175A72075F30175CC0175A70075E3D8
:101610004075E202120471E4F8F6D8FD120EE712EA
:101620000DDA120F78C2AF12038012045912038030
:10163000C2AF75550075560012047175A91375A7D0
:101640001075C10075A700780979007A0030850C03
:10165000DAFBD9F9D8F7120420021C0030290E1247
:10166000041912038C12038C12038CC22975885141
:10167000758E017589AA758C00758D0075C8047505
:10168000910475D84075D90875F782759E077596CF
:101690000275DA4275DB42759B80759D0078A6B6AF
:1016A000010575D11C800375D10C75BCB975BB10D3
:1016B00075E88075B20112036E120AFA75E4D5302E
:1016C000270375E45DC213C214C215C228C2247573
:1016D000A82D75E68075B803D2AF758E0C7558804D
:1016E000755710755B50755EF7755FE77560D67559
:1016F00064E17561EB7562CA7563A975300A1203FE
:1017000080E530602B7558C0755708755B28755E8D
:10171000FF755FF77560EF7564E17561FB7562EBEE
:101720007563DA75300A120380E530600302163003
:10173000C0D075D010AF8ED0D0D229753700C2AFCF
:101740001203C2D2AFC3E532940A40F9C2AF12030A
:10175000C8D2AFE4F542F543F55CF55DF533F53CF1
:10176000C3E53C945E4033753C000533789AE678D7
:1017700014146012782814600D786414600878C816
:10178000146003753300C3E53398400E15337804B5
:10179000C2AF120471120431D2AF202806120BAB73
:1017A00012059730250BE5317002C130120B0E8007
:1017B000AF1203802025A978A7B6010820240512BE
:1017C000042C809CC2AF120471E4752200752300C2
:1017D0007538007539007566007984874F854F4EDE
:1017E0007568FF854F4D854F5375A71075C13075CE
:1017F000A70075A903C3E55833F558C3E55B33F576
:101800005BC3E55733F557E55EC561F55EE55FC53A
:1018100062F55FE560C563F56075643CA2219212D4
:10182000302204A2269212D210D2117534007536DD
:101830000C120AB8120AD9302B0302111612066BC9
:1018400012067212066B12067212066BD2AF1208E3
:10185000FA1209DF120A341206721208EF1204811A
:101860001204F41209DF120A551206721208FA1253
:1018700009DF120A761206721208EF1209DF120A45
:10188000971206721208FA1209DF120AB8120672CB
:101890001208EF1209DF120AD912067212059730E8
:1018A0001137301015854F4D854F4EC3E5349418D0
:1018B000500630259902195DC210201D1CE5361412
:1018C000600BF53630258720228402195DC2117520
:1018D0004DFF7553FFD21C014E753700D21B302BC4
:1018E0000EE570700AC3E56F9410500302195D3065
:1018F000251320220C79A4E76007C3E53294035036
:101900005CE531605820221C302B1078B0E6600B6B
:10191000C3E543964005D22E0217C4C3E54394F0B5
:10192000503B014E201D16A226302B01B32012047D
:10193000400480D440D2D21D854F4E0178854F4E51
:10194000C3E5439440400FC21DA226302B01B39241
:1019500012D211753612014E201B020537C2AFC2DA
:101960002C12047175220075230075A91375A71038
:1019700075C10075A700D3E55813F558C3E55B138F
:10198000F55BC3E55713F557E55EC561F55EE55FA9
:10199000C562F55FE560C563F5607564E1202520EB
:1019A000D215C3E537940350061203800217C4D240
:1019B000AF202A02C224C2AF120425D2AF021730D0
:1019C000D2AF202A02C22475370078A4E66006D27E
:0819D00091D293D29502175346
:1019FD000215C60015E2FF1501FF05FF091801FFCD
:101A0D0055AAFFFFFFFFFFFF04FFFFFFFFFF285059
:101A1D0004FF02FFFFFF00FFFFFF000002000000B8
:081A2D0000000814100000FF86
:101A400023415F485F3330232020202020202020A6
:101A500023424C48454C492445464D3842323123B7
:101A6000426C75656A617920282E3029202020205B
:101A7000023A0420FF106F1463187800A61F780044
:0B1A8000FE106F1463187800FE1000C9
:101C0000C2AFC2D37597DE7597AD7581C075A90057
:101C100043FF80752438752503B1DB7529A5752A26
:101C2000F143F12053A4DFD28575D4FF75E3407DE5
:101C3000FA780379E67C10752200752300901DE880
:101C40007B0675249875250130850281482085081A
:101C5000D8FBD9F9DCF781BA308508D8FBD9F9DC93
:101C6000F781BAB19BE493A3C39A6004DDC381BA40
:101C7000DBDBB18D600281317B08E493FAA3B16EA6
:101C8000DBF87A30B16E752200752300B18DEAFC65
:101C9000EBFDC3ED94FE400EB18D8A278B28ED300D
:101CA000E0048A828B83B18D7AC270D8C3ED94FE32
:101CB000601950CEBD0029EC600F7520007521FF22
:101CC000752900752A000200008100A827A92808AC
:101CD00009D804D90281DDB191EAF281D10D81A642
:101CE000C3ED94035051EDA2E092007AC5C3E582A2
:101CF0009400E583941C508C200010438F02438F86
:101D0000018529B7852AB7F0300027A827A9280818
:101D100009438F01538FFDD804D902A132C3E58353
:101D2000941C4003A3A117E28529B7852AB7F0A325
:101D3000A117538FFC81827AC1BD030CE493A3FAEF
:101D4000B152DCF8B14A81828184AA22AB23B16E00
:101D5000EBFAEA6222752608C3E52313F523E52290
:101D600013F52250066323A0632201D526EAB1DBD6
:101D7000B1DB75260AEAF4200102D285300102C2E5
:101D800085B1DBC3134002C201D526EB22B191EA33
:101D9000FB208502A191308502A196752608AE240C
:101DA000AF25C3EF13FFEE13FEB1DFB1DBC3EA13C0
:101DB0003085024480FA30E703632201C3E5231330
:101DC000F523E52213F52250066323A0632201D5F3
:101DD00026D9E52265236523F52222AE24AF250E00
:101DE0000FDEFEDFFCD20122424C48656C693437BD
:061DF0003164E8B20601B7
:00000001FF
