:060000000219FD0203528B
:03000B0002008070
:0300130002036580
:03001B000200B030
:03002B00020320AD
:03005B0002037429
:0300730002033F46
:10008000C0D075D01018B8CF0408208507B2858677
:100090008AD0D03253A4DFD285C2A98F8E7589AAA7
:1000A000C289C28B758A00D2A8D2AAC228D0D03207
:1000B000C2A8C28E85588BC0D075D008C0E0C0F0F1
:1000C000C2CAA9CCAACDD2CAC3E99559F9EA955AB0
:1000D0007049C3E9955B4043955B503FB8103C784D
:1000E00000A9577D00E2FEC39DC399402E99EC33D1
:1000F000FC08E2FDC39EC399402199EC33FC08E261
:10010000FEC39DC399401499EC33FC08E2FDC39EE5
:10011000C399400799EC33FC088002806AE2FEC371
:100120009DC399406299EB33FB08E2FDC39EC399DE
:10013000405599EB33FB08E2FEC39DC399404899B3
:10014000EB33FB08E2FDC39EC399403B99EB33FBC5
:1001500008E2FEC39DC399402E99EB33FB08E2FDF4
:10016000C39EC399402199EB33FB08E2FEC39DC3B4
:1001700099401499EB33FB08E2FDC39EC3994007F5
:1001800099EB33FB08801E0530E53070021530C353
:10019000E5309432400AD225755C00755D0061102F
:1001A00075310A6110E2FEC39DC39940DA99EA33C2
:1001B000FA08E2FDC39EC39940CD99EA33FA08E2FA
:1001C000FEC39DC39940C099EA33FA08E2FDC39E7D
:1001D000C39940B399EA33FA08EBC46B6C6A3027D1
:1001E00001F4540F70A1C3EBF4FA9460FBECF454E7
:1001F0000F9400FC5018EA7C007B00600CC3135085
:1002000007B55C05055D8006E4F55C755D00302290
:100210001BC3EB94D0F5F0EC94074003ABF0FC303B
:100220002101B39226C3EB33FBEC33FCEB54F04CCF
:10023000C475F00584FAEC13FCEB132AFBEC3400D4
:10024000FC30E3047BFF7C07302B048B6F8C702029
:100250001C27301124EC700C798187F0C3EB95F0EA
:100260005002ABF0E537601175F028A42BFBEC349D
:1002700000FC30E3047BFF7C07302B09202C063088
:100280001C0312155AEB54F84CC423F97007EB7099
:1002900004D2258005753200C225E5306002153094
:1002A000C3E54DFD954E4002AD4EC3ED995008EDAE
:1002B00075F008A4FBACF08CF0EBA2F013A2F113E4
:1002C000F4F9EC0303F45401FA202C25C3E9941E3D
:1002D000FBEA9400FC5005E4FBFC800DC3EB955059
:1002E000EC95514004AB50AC5189FB8AFC8BE98CF6
:1002F000EA75310A302719302816758E017589A2E2
:10030000D28543A420780085648AC28DD2A9800951
:100310007800758A00D2A8D2AAD0F0D0E0D0D0322E
:10032000C0E0C2CF053CD223E5317004D225800263
:100330001531302507E5320460020532D0E032C2C3
:10034000AF53E67F53917F7592FA7593FFC218D22F
:10035000AF32C0E0E58A85588BC0D075D008F2086E
:10036000D0D0D0E032C2AAD28EC2CA85CC5985CDB7
:100370005AD2CA32327A007901801E7A0079058019
:10038000187A00790A80127A007964800C7A0079F0
:10039000C880067A0079FA8000090A800978187402
:1003A000FFD5E0FDD8F9D9F5DAF3227A427B358022
:1003B000247A2D7B4D801E7A267B5C80187A197BEF
:1003C0008C80127A147BAF800C7A427B1E80067A76
:1003D0002D7B2C8000E5547001227902E4C293D574
:1003E000E0FDD292D5E0FDC292D5E0FDD293D5E0FA
:1003F000FDE920E002D29030E002D294E554D5E04D
:10040000FDE920E002C29030E002C2947496D5E08B
:10041000FDD9C9EA78C8D8FED5E0F9DBBDC2932280
:1004200071AB71B171B72271CF71AB2271B771B17C
:1004300071AB2271CF71C92279998754B8010471C7
:10044000AB8017B8020471B18010B8030471B78093
:1004500009B8040471BD800271C3799887542222BF
:1004600078A5E6F954037000E9540C7000E95430A3
:100470007000E954C0700022C290C292C294C2912E
:10048000C293C29575D5FF22301E0302053CA84FCA
:1004900020102B78FFE53B6025E543602174FF3099
:1004A0001102747F8543F084853BF0A4F8C5F060A9
:1004B00005754EFF800AC3E8954F5002A84F884E3D
:1004C000E56A456B6034C3E542956AE543956B5038
:1004D0000BE568C3940B401815688014C3E542957A
:1004E0006CE543956D4009E568B4FF02800205683C
:1004F000C3E54E9568400385684E2278AAE66026DB
:10050000E56E7019C3E5439420403078AAE6120FD7
:10051000E2C2AF8C508D51D2AF756E0122C3E5435C
:10052000941C50178004E56E6011788DE6120FE27E
:10053000C2AF8C508D51D2AF756E0022C3E542948C
:10054000A0E5439400E54E5003148001046002F5D9
:100550004E22E576B180C3E9941EFBEA9400FC507C
:1005600005E4FBFC800DC3EB9550EC95514004ABCA
:1005700050AC51C2AF89FB8AFC8BE98CEAD2AF2226
:1005800075F008A4FBACF08CF0EBA2F013A2F11311
:10059000F4F9EC0303F45401FA22B180C2AF89EB01
:1005A0008AECD2AF22102301220567E56754076069
:1005B0000122E56720E335E55260267553FFE5BE6D
:1005C000601FE5BDC3955240187553C8940440118F
:1005D0007553969404400A7553649404400375530C
:1005E000322024012285386575660C22E552600FA1
:1005F000C3E54D955360084004154D8002054D300C
:100600002473E5675438B40829C3E5399478500356
:10061000E4800475F00984A21392E7A21492E6A282
:100620001592E5C213C214C215F56575660E75E81C
:100630009022B4180A75658875660875E89022B42A
:10064000280A7565AA75660A75E8902278A6B6012B
:100650000DE5BE7003E48018E5BD94148012E5BE7C
:10066000700AE5BDC394EB5007E48004E5BD241493
:10067000F56575660275E890227542007543F022B3
:10068000C2AFC2CAA8CCA9CDAA3C30CF010AD2CAF7
:10069000D2AFC3EA13FAE913F9E813F8201014C330
:1006A000E8953D883DF8E9953E893E547FF9301E36
:1006B00036E19AAB3DAC3EAD3F883D893E8A3FC3B3
:1006C000E89BE99CEA9D547F60087542FF7543FFF3
:1006D000E169AE40AF418B408C41C3E89EF8E99F91
:1006E000F9AA42AB438011AA42AB43C3EB94044046
:1006F0004894044013201126C3EB13FDEA13FCC3F6
:10070000ED13FDEC13FC804AEBC423FCEAC4235434
:100710001F4CFC7D00C3E913F9E813F88034EBC4E7
:1007200023FC541FFDEC54E0FCEAC423541F4CFC92
:10073000C3E913F9E813F88019EBC4FCEAC4540FB9
:100740004CFC7D00C3E913F9E813F8C3E913F9E899
:1007500013F8C3EA9CFAEB9DFBEA28F542EB39F566
:100760004350067542FF7543FFC3E54394025002B0
:10077000D21EE543C4FA540FFBEA54F0FAE542C432
:10078000540F4AFAC3EA9402FAEB9400FB40057056
:1007900048EA70457A017B00803FAA42AB43EBC434
:1007A000FCEAC4540F4CFCC3EA9CFAEB9400FBE84F
:1007B0000303543F2AFAEB3400FB8A428B43C39471
:1007C000024002C21EEBC4FE7B00EAC4540F4EC3BB
:1007D0009402FA400270027A0120280630180812AA
:1007E0000BB930180280FB854992854A93D2184391
:1007F000E6807892E6FFC3E49AF8E49BF9C3E83315
:10080000F8E933F9201E7F3010047F038015C3E51B
:10081000389482400E0F941E40010FC3EF9406409F
:10082000027F05E8FAE9FBD3E913FDE813FC8C47E6
:100830008D488849894AC3EF9403602BEF20E00C70
:10084000E82CF8E93DF9ECFAEDFB800BE8D338F839
:10085000E939F97AFF7BFFC3EF9403400A8A4B8B97
:100860004C884589468050884B894C8A458B463058
:100870001045754BF0754CFF7547F07548FF75498D
:10088000F0754AFF8031E8FAD313FC8C478849C3DE
:10089000EF9403601EEF20E007E82CF8ECFA8007E5
:1008A000E8282401F87AFFC3EF940340068A4B88B6
:1008B000458004884B8A4520280530180771B930D7
:1008C000180280FB753502D21843E68030112DA83E
:1008D00042A943C3E913F9E813F8301004E92440AE
:1008E000F9C2AF53E67F759100C3E498F594E4999B
:1008F000F595759104D21843E680D2AF2275F000C9
:10090000301D0E75F040800975F040301D0375F004
:1009100000D2197544007A027B02201E1D3011029C
:10092000C2193010067A367B36800F7B28E543707B
:100930000104FAC3942840027A28201810E5446084
:100940000C301003D53504D21A806611C70544E572
:100950009B5440B5F00DE53460BC2019B9DADBC218
:100960001A804E20100B2019110AC3EA9B40CB803D
:10097000A50AC3EA9B40011A80C0C21953E67F75DD
:100980009100301E117594007595F0759104D21880
:1009900043E680020916E5437EFFC3334009C333B3
:1009A0004005C3334001FEC3E49E759400F5958075
:1009B000DAC2AF53E67F85459285469375910085EF
:1009C0004B94854C95759104D21843E680D2AF20A4
:1009D0001018301A17201114201D1120190EC2AF43
:1009E00012047815811581021965053422E53875E0
:1009F000F007A430190405F0D213A2F013A2F113EA
:100A0000A2F213F538C394785003753878C3E538EB
:100A100095394003853839C3E538953A400BD214EF
:100A2000C290C292C29475D5FF2028053018077174
:100A3000B930180280FB854792854893D21843E667
:100A4000802220120FC2AFC293D29175D5CFD2AF00
:100A5000759F2022C2AFC293D29575D5FCD2AF75D7
:100A60009F202220120FC2AFC29475D5F3D291D22B
:100A7000AF759F3022C2AFC29075D5F3D295D2AF79
:100A8000759F102220120FC2AFC291D29575D5F377
:100A9000D2AF759F1022C2AFC295D29175D5F3D255
:100AA000AF759F302220120FC2AFC29275D5FCD213
:100AB00095D2AF759F2022C2AFC29275D5CFD29189
:100AC000D2AF759F202220120FC2AFC295D293756C
:100AD000D5FCD2AF759F3022C2AFC291D29375D5EB
:100AE000CFD2AF759F102220120FC2AFC29075D522
:100AF000CFD293D2AF759F1022C2AFC29475D5FCEE
:100B0000D293D2AF759F30227432A28540032085E4
:100B1000F750033085F2D5E0F3922722E55C7001AF
:100B200022F8C39406500FC2AF1204781204381290
:100B3000038DD2AF807CC3E55D9406407BB807048B
:100B4000C221806EB80804D2218067B80904C2228D
:100B50008060B80A04D2228059B80D0A7565007504
:100B6000660ED224804CB80E0A7565FF75660EC2FB
:100B700024803FB8140C7988E714A2E09221C22A9D
:100B80008030B8150D7988E714A2E0B39221D22AFB
:100B90008020B80C1DE4A22192E0A22292E1047907
:100BA00088F77555A57556F1D12E75550075560007
:100BB000D2AF755C00755D0022C0D075D010BE004C
:100BC00039E566702EC2AFE542854327D2AFA23821
:100BD00013F9A2391329FAE52703C2E7F903C2E79B
:100BE00039FBE527232354FCFCC3EA9CF526EB9450
:100BF00000F5270E201803D0D022BE0124E5667030
:100C000010E527705DE526701175270F7526FF80AA
:100C1000098565268566277566000E201803D0D0E5
:100C200022BE0215E526C465266527F478D0A65EA7
:100C300091DF0E201803D0D022BE030BE52691DFF2
:100C40000E201803D0D022BE040CE526C491DF0E7E
:100C5000201803D0D022E52791DF087E00D0D0D223
:100C6000282220E71620E61D20E52720E43420E393
:100C70004120E25020E15CE526809FA23733F52633
:100C800075270F8095A23733A23633F52675270DC9
:100C90008088A23733A23633A23533F52675270B69
:100CA000811AE52654F0C23C4527C4F5267527096C
:100CB000811AE526A23813A23913A23A13F5267534
:100CC0002707811AE526A23813A23913F5267527BE
:100CD00005811AE526A23813F526752703811A54D3
:100CE0000F23900CE673A106A110A11DA12EA1381F
:100CF000A145A14FA163A170A184A18BA19CA1A634
:100D0000A1BDA1C7A1DB08A66008A65E08A65E2259
:100D100008A65E08A65F08A65E08A65E2286F0E525
:100D20005FB5F002E560F608A66008A65E2208A698
:100D30005E08A66008A65E2208A65F08A65E08A652
:100D40005E08A65E2208A65F08A65F08A65E228649
:100D5000F0E55FB5F002E560F608A65E08A65F085C
:100D6000A65E2208A65E08A65E08A65F08A65E220A
:100D700086F0E55FB5F002E560F608A65F08A65EBE
:100D800008A65E2208A66008A65F2286F0E55FB589
:100D9000F002E560F608A65F08A65F2208A65E08D6
:100DA000A65F08A65F2286F0E55FB5F002E560F673
:100DB00008A65E08A65E08A65E08A65E2208A65FD4
:100DC00008A65E08A65F2286F0E55FB5F002E56042
:100DD000F608A65E08A65E08A65F2208A65E08A61C
:100DE0005E08A65E08A65F22901A0D7820D16EE5F7
:100DF00020B4550AA3D16EE520B4AA02801275551D
:100E0000A57556F1D1F5D12E755500755600801D8A
:100E1000901A0378807B0AD16EA308DBFA901A0F30
:100E2000788C7B25D16EA308DBFA901A3422C2AFEE
:100E3000D1B1D1D3D18E901A007400D173A374159F
:100E4000D173A374E2D173901A0378807B0AD172B4
:100E5000A308DBFA901A0F788C7B25D172A308DBEC
:100E6000FAD1C4D1E6D1A2901A3412038D22E493B0
:100E7000F622E6438F01538FFDFFC3E583941C40A8
:100E80000122EF8555B78556B7F0538FFE22438F69
:100E900002438F018555B78556B7901A0DF0538FD1
:100EA000FC22901A0D7455D173901A0E74AAD17346
:100EB000227A3079D07820901A40D16EE520F70957
:100EC000A3DAF7227A3079D0901A40E7D17309A3D8
:100ED000DAF9227A8C79007820901A70D16EE520A8
:100EE000F309A3DAF7227A8C7900901A70E3D173B0
:100EF00009A3DAF922788076FF08761508760108CA
:100F000076FF0876050876FF0876090876300876B9
:100F1000010876FF08080876FF0876FF0876FF08C4
:100F200076FF0876FF0876FF0876040876FF0876D5
:100F3000FF0876FF0876FF0876FF087628087650C7
:100F40000876040876FF0876020876FF0876FF0820
:100F500076FF0876000876FF0876FF0876FF0876A9
:100F60000008760008760208760008760008760009
:100F700008760008760008760808761408761008C7
:100F80007600087600227888E614A2E19222A2E098
:100F900092217884745096500276507886740D961B
:100FA0005002760D863B789CE6753AFFB4020375D5
:100FB0003AA0B40303753A8275520078A0E6F9604E
:100FC0000F78A6B601047453800274282409D9FC52
:100FD000F55278988654788DE6F1E28C508D51F177
:100FE000F522FA23F5F05401FDE5F054FEFCEAB4D5
:100FF000FF027CFF2278A8E6B4FF01E4F96008C391
:10100000E99412400279008969756A00756B007570
:101010006C00756D0078A9E6B4FF01E46032C394FA
:1010200089400474888002248911E78A6A8B6BEAFC
:10103000FCEBFD75F004C3ED13FDEC13FCD5F0F6ED
:10104000EA2CF56CEB3DF56D5006756CFF756DFF88
:1010500078AAE6B4FF027600756E00C22BC22CC2DD
:101060002D78ABE6B4FF02E4F66007D22BB402029F
:10107000D22D78ACE6B4FF027408C3F9942940027B
:10108000792878ACE9F678ADE6B4FF027414C3F9B8
:10109000943D4002793C78ADE9F678AEE6B4FF02C3
:1010A0007610C22E78AFE6B4FF02E4F678B0E6B46C
:1010B000FF01E4F9C394F0400279EF78B0E9F678E3
:1010C000C2E4F608F6E9600911EF78C2EAF608EB27
:1010D000F678AFE6600978C3E6C378AF964007E4D8
:1010E00078AFF678B0F6227A807B387C0180067A79
:1010F000007B407C1FF97D0075F018C3EA33FAEBE2
:1011000033FBEC33FCED33FD740033FEC3ED99FF8C
:101110005003EE6003EFFD0AD5F0E0EC60047AFFC7
:101120007BFF22C2AFD22C12047875710175720058
:10113000757300756F00757000757D00757E00C257
:101140002F302E11C22EA226921278C2E6F5740814
:10115000E6F5758006757400757500911C202D0BE1
:10116000120552120AC6120AE78004915091F191B9
:101170004388778978D2AFE531604F9143C3E895D2
:1011800077FAE99578FBC3EA94A0EB940F4016E553
:101190007724A0F577E578340FF57831D2402B30FD
:1011A0002F030213272028CFE575600C11EFC2AF83
:1011B0008A428B43D2AF800AC2AF7542FF7543FFAC
:1011C000D2AF120BB91205A580AD302D029162028B
:1011D000196AA86FA97075F003C3E833F8E933F909
:1011E000D5F0F6202605201209800330120451564E
:1011F000802E780079005156E57445757022C2AF93
:10120000120478A2269212202D08120AC6120AE7AA
:1012100080057579FFD2AF75710175720075730025
:10122000E571FEE5722574F572E5733575F5735059
:1012300011302D0CE57104B407027401F5718002C0
:10124000519551D0911C400C202D05120552800261
:1012500091F1C322D322E8FAE9FB78AEE6FCC3E5BC
:10126000749AE5759B4015C3E5749CF8E575940088
:10127000F94019C3E89AE99B50168010E5742CF8E0
:10128000E5753400F9C3EA98EB995004EAF8EBF9F4
:101290008874897522E57114601314601714601B3B
:1012A00014601F146023120AE775710122120A42AA
:1012B00075710222120A6375710322120A84757114
:1012C0000422120AA575710522120AC6757106223A
:1012D00078AFE6700122FDA226201204401480029D
:1012E0005010C3E5759D400AE57E04700114F57E3B
:1012F0008003757E00E57D04700114F57DC3E57102
:101300009E6023E571B40304757D0022B40117C308
:10131000E57E94104010C3E57D94094009C3E57D46
:10132000941F5002D22F22C2AF120478302D0491A4
:1013300062C2AFB21271C470030217D1147002748A
:1013400006F571E57D75F0D0A4F542ACF0E57D754C
:10135000F007A42CF5439143C3E913F9E813F8E52A
:1013600043C313FBE54213FAC3EB13FBEA13FAC3BF
:10137000E89AF53DE99BF53EC3EB13F9EA13F81241
:1013800008E1C2AF7592F07593FFD211753401C2B6
:101390001075360CC21E854F4D854F4E5195C2AF0C
:1013A000C22CD2AF120680E5711475F003A490131D
:1013B000B27302185B0218670218790218850218C6
:1013C0009102189D7D307CF0DCFEDDFA7D407EFFD1
:1013D00071E16EAEF07006E5F091007003DDF1E4AE
:1013E00022E4F5F07A107B038A9F7CF0DCFEE59B1B
:1013F000A2E6E5F033F5F0EA2410FADBEBE5F022A3
:1014000030120CA2E092D5A2E292E0A2D592E29034
:1014100014149322000501060304020078ACE6F9D7
:101420002575500274FFFA78ADE6F5F0C3EA95F041
:101430004002AAF0C3EA954D4002AA4D8A76C3E560
:101440004D9922C2AFC2CAA8CCA9CDD2CAD2AF226E
:10145000E412059AC2AF75DC4275E203D2AF75792A
:10146000FF22C2AF75E20275DC00D2AF22C2AF75B7
:10147000D5FFC290C292C294C291C293C295700726
:10148000D29175D5E3800F147007D29375D5EC8097
:1014900005D29575D5F8D2AF22E57AC39430400EC7
:1014A000E57AC39470400AE57AC394B040067401AB
:1014B00022740222E422C3E57A9A5002F404FBC3A8
:1014C0009461400574C0C39B22EB22C423232420D3
:1014D000FA91B6FCEA2420FA91B6FBC39C5002EBC9
:1014E000FC7430C39C229015A2938576F0A4E5F09D
:1014F00022E573C313C313C313F57BE57114C4232F
:10150000257B30120BF57B74C0C3957BB4C001E41E
:10151000F57A91997008757B01757C0280111470C1
:1015200008757B00757C028006757B00757C01E583
:101530007B91CB91E6F57BE57C91CB91E6F57C85C3
:101540007B76120552E57C12059A9199F57BB57967
:101550000122E57B916D857B792278AFE6603DF5D0
:10156000F05407C425E0F9E5F0030303541FFAC360
:10157000EB99F9EC9A4026FAE9C333FBEA33FCC352
:10158000EA13F5F0E9132BFBE5F03CFCEB2460FBE0
:10159000EC3400FC54F860047BFF7C07227B607C09
:1015A000002200081119212A323A424A525A62692D
:1015B00071787F878E959BA2A8AEB4BAC0C5CACFFA
:1015C000D4D9DDE1E5E8ECEFF1F4F6F8FAFCFDFE44
:1015D000FEFFFF7555007556007597DE7597AD7562
:1015E00081B243FF8075EF0675A9001204787580FB
:1015F000FF75F1F075A4007580FF75D4FF7590003C
:1016000075F23F75A53F75900075D5FF75A60175FC
:10161000A72075F30175CC0175A70075E34075E24D
:1016200002120478E4F8F6D8FD120EF5120DE81255
:101630000F86C2AF120387120460120387C2AF7510
:10164000550075560012047875A91375A71075C159
:101650000075A700780979007A0030850CDAFBD98B
:10166000F9D8F7120427021C0030290E12042012A8
:101670000393120393120393C229758851758E0147
:101680007589AA758C00758D0075C80475910475EF
:10169000D84075D90875F781759E0775960275DA79
:1016A0004275DB42759B80759D0078A6B601057575
:1016B000D11C800375D10C75BCB975BB1075E88061
:1016C00075B201120375120B0875E4D53027037546
:1016D000E45DC213C214C215C228C22475A82D75B8
:1016E000E68075B803D2AF758E0C755880755710AB
:1016F000755B50755EF7755FE77560D67564E1756B
:1017000061EB7562CA7563A975300A120387E5300B
:10171000602B7558C0755708755B28755EFF755F3F
:10172000F77560EF7564E17561FB7562EB7563DAFF
:1017300075300A120387E530600302163DC0D0758C
:10174000D010AF8ED0D0D229753700C2AF1203C9E6
:10175000D2AFC3E532940A40F9C2AF1203CFD2AF81
:10176000E4F542F543F55CF55DF533F53CC3E53C46
:10177000945E4033753C000533789AE67814146023
:1017800012782814600D786414600878C814600317
:10179000753300C3E53398400E15337804C2AF1299
:1017A0000478120438D2AF202806120BB91205A50E
:1017B00030250BE5317002C13D120B1C80AF1203C6
:1017C000872025A978A7B6010820240512043380B4
:1017D0009CC2AF120478E4752200752300753800AE
:1017E0007539007566007984874F854F4E7568FF9F
:1017F000854F4D854F5375A71075C13075A700757E
:10180000A903C3E55833F558C3E55B33F55BC3E57E
:101810005733F557E55EC561F55EE55FC562F55F77
:10182000E560C563F56075643CA221921230220424
:10183000A2269212D210D21175340075360C120AFB
:10184000C6120AE7302B0302112312067912068012
:10185000120679120680120679D2AF12090812090F
:10186000ED120A421206801208FD1204881204FBCF
:101870001209ED120A631206801209081209ED120C
:101880000A841206801208FD1209ED120AA512063A
:10189000801209081209ED120AC61206801208FD0C
:1018A0001209ED120AE71206801205A53011373031
:1018B0001015854F4D854F4EC3E5349418500630B2
:1018C000259902196AC210201D1CE53614600BF51B
:1018D0003630258720228402196AC211754DFF75A2
:1018E00053FFD21C015B753700D21B302B0EE57005
:1018F000700AC3E56F9410500302196A3025132053
:10190000220C79A4E76007C3E5329403505CE5310B
:10191000605820221C302B1078B0E6600BC3E543E2
:10192000964005D22E0217D1C3E54394F0503B01F7
:101930005B201D16A226302B01B320120440048028
:10194000D440D2D21D854F4E0185854F4EC3E5430D
:101950009440400FC21DA226302B01B39212D21127
:10196000753612015B201B020537C2AFC22C120470
:101970007875220075230075A91375A71075C1002D
:1019800075A700D3E55813F558C3E55B13F55BC3A2
:10199000E55713F557E55EC561F55EE55FC562F590
:1019A0005FE560C563F5607564E1202520D215C34D
:1019B000E537940350061203870217D1D2AF202ACD
:1019C00002C224C2AF12042CD2AF02173DD2AF2004
:1019D0002A02C22475370078A4E66006D291D29319
:0519E000D29502176022
:1019FD000215D30015E2FF1501FF05FF093001FFA8
:101A0D0055AAFFFFFFFFFFFF04FFFFFFFFFF285059
:101A1D0004FF02FFFFFF00FFFFFF000002000000B8
:081A2D0000000814100000FF86
:101A400023415F485F3330232020202020202020A6
:101A500023424C48454C492445464D3842323123B7
:101A6000426C75656A617920282E3029202020205B
:101A7000023A0420FF106F1463187800A61F780044
:0B1A8000FE106F1463187800FE1000C9
:101C0000C2AFC2D37597DE7597AD7581C075A90057
:101C100043FF80752438752503B1DB7529A5752A26
:101C2000F143F12053A4DFD28575D4FF75E3407DE5
:101C3000FA780379E67C10752200752300901DE880
:101C40007B0675249875250130850281482085081A
:101C5000D8FBD9F9DCF781BA308508D8FBD9F9DC93
:101C6000F781BAB19BE493A3C39A6004DDC381BA40
:101C7000DBDBB18D600281317B08E493FAA3B16EA6
:101C8000DBF87A30B16E752200752300B18DEAFC65
:101C9000EBFDC3ED94FE400EB18D8A278B28ED300D
:101CA000E0048A828B83B18D7AC270D8C3ED94FE32
:101CB000601950CEBD0029EC600F7520007521FF22
:101CC000752900752A000200008100A827A92808AC
:101CD00009D804D90281DDB191EAF281D10D81A642
:101CE000C3ED94035051EDA2E092007AC5C3E582A2
:101CF0009400E583941C508C200010438F02438F86
:101D0000018529B7852AB7F0300027A827A9280818
:101D100009438F01538FFDD804D902A132C3E58353
:101D2000941C4003A3A117E28529B7852AB7F0A325
:101D3000A117538FFC81827AC1BD030CE493A3FAEF
:101D4000B152DCF8B14A81828184AA22AB23B16E00
:101D5000EBFAEA6222752608C3E52313F523E52290
:101D600013F52250066323A0632201D526EAB1DBD6
:101D7000B1DB75260AEAF4200102D285300102C2E5
:101D800085B1DBC3134002C201D526EB22B191EA33
:101D9000FB208502A191308502A196752608AE240C
:101DA000AF25C3EF13FFEE13FEB1DFB1DBC3EA13C0
:101DB0003085024480FA30E703632201C3E5231330
:101DC000F523E52213F52250066323A0632201D5F3
:101DD00026D9E52265236523F52222AE24AF250E00
:101DE0000FDEFEDFFCD20122424C48656C693437BD
:061DF0003164E8B20601B7
:00000001FF
